:10800000C89000207D960000F1C500005196000048
:1080100051960000519600005196000051960000C4
:10802000000000000000000000000000F5920000C9
:10803000519600000000000095920000519600004B
:108040007993000079930000799300007993000000
:1080500079930000799300007993000079930000F0
:1080600079930000799300007993000079930000E0
:1080700079930000799300007993000079930000D0
:1080800079930000799300007993000079930000C0
:1080900079930000799300007993000079930000B0
:1080A00079930000799300007993000079930000A0
:1080B0007993000079930000799300007993000090
:1080C0007993000079930000799300007993000080
:1080D0007993000079930000799300007993000070
:1080E0007993000079930000799300007993000060
:1080F0007993000079930000799300007993000050
:10810000799300007993000079930000799300003F
:10811000799300007993000079930000799300002F
:10812000799300007993000079930000799300001F
:10813000799300007993000079930000799300000F
:1081400079930000799300007993000079930000FF
:04815000799300001F
:1081540053B94AB9002908BF00281CBF4FF0FF31AA
:108164004FF0FF3000F00CB8ADF1080C6DE904CE0F
:1081740000F008F8DDF804E0DDE9022304B07047FC
:10818400704700BF2DE9F04786468C460846089E96
:10819400154674461946002B40F0C1808542B2FA58
:1081A40082F245D94AB1C2F1200300FA02FC95409B
:1081B40094402EFA03F343EA0C0C4FEA154EA8B28E
:1081C400230CBCFBFEF80EFB18CC08FB00F943EAB9
:1081D4000C43994528D9EB1808F1FF3704D2994587
:1081E40002D9A8F102072B44A3EB0903A4B2B3FB01
:1081F400FEFC0EFB1C330CFB00F044EA0344A042DB
:1082040014D92C190CF1FF3304D2A04202D9ACF1D9
:1082140002032C44241A43EA07401EB1D44000232D
:1082240034607360BDE8F0874746DDE76346F1E7F5
:1082340092BB431B01214FEA154EAFB2200CB3FB96
:10824400FEFC0EFB1C330CFB07F840EA0343984585
:1082540061D9EB180CF1FF3004D2984502D9ACF186
:1082640002002B44A3EB0803A4B2B3FBFEFC0EFBF9
:108274001C330CFB07F744EA0344A7424DD92C19DD
:108284000CF1FF3304D2A74202D9ACF102032C440F
:10829400E41B43EA0040C0E7C2F120039540944048
:1082A40020FA03F12EFA03F34FEA154E9040AFB2D1
:1082B4000343B1FBFEFC0EFB1C10190C0CFB07F86E
:1082C40041EA0041884522D969180CF1FF3004D2F3
:1082D400884502D9ACF102002944A1EB08019BB204
:1082E400B1FBFEFC0EFB1C110CFB07F743EA014338
:1082F4009F420ED9EB180CF1FF3104D29F4202D9F0
:10830400ACF102012B44DB1B41EA004193E76046D8
:10831400E3E76146F7E76046A4E76346B8E78342CC
:1083240006D916B9002108467CE7C6E900E0F9E75A
:10833400B3FA83F78FB9834201D3724508D8BEEBF1
:10834400020460EB030301209C461EB9002169E787
:108354003846FAE7C6E9004CF8E7C7F1200CBB4001
:108364000EFA07F522FA0CF42EFA0CF1BA401C436B
:1083740020FA0CF3B8404FEA144901431FFA84FE73
:10838400B3FBF9F809FB18300B0C08FB0EFA43EAAF
:1083940000439A4540D9E31808F1FF3004D29A45C6
:1083A40002D9A8F102002344A3EB0A0389B2B3FB68
:1083B400F9F809FB183308FB0EFE41EA03418E4528
:1083C4002CD9611808F1FF3304D28E4502D9A8F1E3
:1083D4000203214443EA0040A1EB0E01A0FB0298F2
:1083E4004145CE46434602D306D14D4504D2013819
:1083F400B9EB020E68EB0403002EA7D0B5EB0E0216
:1084040061EB030101FA0CFC22FA07F3F9404CEA90
:108414000303C6E9003199E74046C5E74346D9E777
:1084240008B51F4803F05EFF01221E4BC3F8042564
:108434001D4B1B6A3BB31D4BD3F80024002AFBD011
:108444000122C3F80425D3F80024002AFBD000221B
:10845400154B1A62154BD3F80024002AFBD00022D6
:10846400C3F80425D3F80024002AFBD0BFF34F8FB0
:108474000F49104BCA6802F4E0621343CB60BFF3A8
:108484004F8F00BFFDE70C4803F02CFF0B4803F0AF
:1084940029FF00214FF4004003F042FDF9E700BF3B
:1084A40054D10000006000500080FF000090035091
:1084B40000ED00E00400FA0570D1000088D100004E
:1084C400014B1B68184700BF00800020014B186057
:1084D400704700BF0080002007B50B46002102460C
:1084E4000091034800F014F903B05DF804FB00BFE9
:1084F400C58400002DE9F047058B04462807904603
:1085040011D4022905F0070540F0CD80204603F080
:1085140000FF78B10138218B042811D8DFE800F07E
:10852400C3106D85950001290CBF45F0100545F079
:108534002005258388F31188BFF36F8FBDE8F0878A
:1085440001F0070AAA4500F0A6800027B9463E4676
:10855400A368002B00F0BD8041F00801218388F35B
:108564001188BFF36F8FA168002900F0BB800D68EC
:10857400002900F0B780334652462046D1F80480E3
:10858400C047002D76D02B6829461D46F0E701F040
:1085940007035A1F012A1BD8002221F00701062BCA
:1085A400276889B2C4E9002209D13B4603E0628B03
:1085B400013262831B68002BF9D141F0020120468D
:1085C400218303F0A6FE00287BD041F0200177E050
:1085D400042B0AD121F0070189B22046218303F03C
:1085E40098FE10B141F020012183218B01F0070A8C
:1085F400AA4550D00027B946AAE7236921F007010C
:1086040041F00601062DD3F8009021832DD1B9F154
:10861400000F40D041F00801218388F31188BFF393
:108624006F8F20463949C84729E021F007012369A3
:1086340041F0040189B2042DD3F804902183E6D0DB
:1086440000274FF0040A3E4682E721F00701236920
:1086540041F0050189B2052DD3F808902183D6D0C5
:1086640000274FF0050A3E4672E700274FF0060A3E
:108674003E466DE72B4687E7B9F1000FD1D14FF0A5
:108684002003EFF3118883F31288BFF36F8F238BDA
:1086940023F008032383258BEA062ED525F0100347
:1086A400238305F007056669218B002EBFF66FAFA3
:1086B40000232768C4E9003321F0070141F00101D8
:1086C4002183218B4FF0000901F0070AAA457FF4AA
:1086D4003FAF002F9BD041F00801218388F311881C
:1086E400BFF36F8F002FC7D03D68394633465246DB
:1086F400204603F03AFE2F46F4E7AB067FF51AAFA7
:1087040025F02003238305F00705FFE69BC3000043
:108714002DE9F04F81468B4617461C46002595B03F
:10872400387808B9284657E37B1C2528039306D0DC
:108734005946C8470028C0F24F830135FBE118228F
:1087440000210EA803F0A0FF7B78252B7DD0002309
:1087540098469E469C461E46781C014610F8012BFE
:108764002B2A00F0A18000F29880202A00F09F803C
:10877400232A00F09F802BB19DF8403043F0400342
:108784008DF84030B8F1000F05D09DF8403043F02B
:1087940020038DF84030BEF1000F05D09DF8403025
:1087A40043F010038DF84030BCF1000F05D09DF864
:1087B400403043F008038DF840302EB19DF840302E
:1087C40043F004038DF840309DF8403003F044003A
:1087D400442803D16FF386138DF840309DF8403060
:1087E4002A2A43F080038DF840307FD19DF8412040
:1087F4004B1C42F001028DF841201A782E2A0CBF3E
:10880400012100219DF8412061F341028DF84120AE
:1088140078D15A782A2A6ED000224FF00A0C0133FC
:10882400194611F8010BA0F13006092E40F295808B
:108834009DF840101292C1F3400040EAD2700A46FB
:1088440060F341028DF840205CE0BA1C03928DF87D
:1088540043309DF84130DA0740F12E8154F8048BFF
:10886400B8F1000F07DA9DF84020C8F1000842F083
:1088740004028DF840205E0740F1278154F804ABD0
:10888400BAF1000F80F226819DF841306FF3410365
:108894008DF841304FF0FF3A1CE12D2A0DD0302ADB
:1088A4007FF469AF012358E74FF0010C55E74FF00F
:1088B400010E52E74FF001084FE701264DE703464A
:1088C4000EFB0262303A184610F8016BA6F1300C28
:1088D400BCF1090FF3D999428FD09DF84010119241
:1088E400D20F62F341018DF8401086E70B46002257
:1088F4004FF00A0EE7E79DF84120023342F00402EC
:108904008DF841201A786C2A47D02BD8682A31D0A8
:108914006A2A4BD04C2A51D01A4612F8013B782BC4
:1089240003928DF843309DF8412000F2BE806D2BF8
:1089340051D8692B00F2B980572B67D8412B03D04B
:10894400453B022B00F2B18004229DF8423062F3D1
:1089540002038DF84230012373E00CFB02020B4644
:10896400303A5DE7742A25D07A2AD5D106219DF8BC
:1089740041200CE05A78682A9DF8412006D1012153
:1089840061F3C6028DF841200233C5E7022161F389
:10899400C6028DF841200133BEE75A786C2A9DF84F
:1089A400412001D10421EBE70321F0E705219DF8E3
:1089B4004120ECE707219DF84120E8E7BDF840207D
:1089C40022F4F04222F0020242F4804242F0020217
:1089D400ADF84020DFE76E3BD9B201238B4040F273
:1089E40082410B4237D113F0240F51D1D8075CD503
:1089F40003219DF8423061F302038DF8423002F006
:108A04007803A3F140014B424B411AE00120A3F14A
:108A14005801C9B200FA01F111F4624F94D140F641
:108A2400010631421DD111F4043F3ED09DF842307D
:108A340060F3020302F07802402A8DF8423034D009
:108A440000239DF84020C2F340010B4363F341022D
:108A54008DF84020FDE602219DF8423061F30203C7
:108A6400E8E702209DF8421002F0780260F3020168
:108A7400402A8DF8421002BF9DF8401041F00101D8
:108A84008DF84010632BDBD1131E18BF0123D8E7E8
:108A940003219DF8423012F0780F61F302038DF840
:108AA400423014BF01230023CBE79DF8403043F04C
:108AB40001038DF84030C3E79DF94020002AACBF84
:108AC4004FF0FF38DDF84480D5E698077FF5E2AE35
:108AD400DDF848A00023CDE911339DF842309DF81C
:108AE400411003F00703012BC1F3C30133D1CB1EA3
:108AF400042B04D8DFE803F0214646212100236833
:108B040001294FEAE372CDE90E321CD19DF93830C8
:108B1400DA17CDE90E3204349DF8403013F0030621
:108B240050D03A4659464846039B03F011FD0028AD
:108B3400C0F252810544039FF2E554F8043BDA176E
:108B4400CDE90E32E8E70229E5D11AB243F3C03386
:108B5400CDE90E23DFE7022B24D1CB1E042B04D84E
:108B6400DFE803F018101018180001294FF0000274
:108B740054F8043B14D00229CDE90E32CCD19BB277
:108B84000E93C9E7073424F00704F4E80223CDE97F
:108B94000E23C1E754F8043B0E9300230F93BBE765
:108BA400DBB2CDE7042B08D1073424F00704D4E961
:108BB40000230834CDE90E23AEE7032BACD154F8DF
:108BC400043BDDE79DF843007828B4D862281CD81C
:108BD40025283FF4ADAD5828ADD1DDE90E010DF1E6
:108BE4003603009310AA08AB03F06CFCBAF1000F33
:108BF400074680F29980002F9DD00DF13603D81BD3
:108C0400002E00F0C0800130BDE06338152892D8F2
:108C140001A252F820F000BFF18C0000038D000087
:108C24003B8B00003B8B00003B8B00003B8B000028
:108C3400038D00003B8B00003B8B00003B8B00004E
:108C44003B8B00008F8D0000278D00004D8D0000B0
:108C54003B8B00003B8B0000758C00003B8B0000BD
:108C6400278D00003B8B00003B8B0000278D00000C
:108C7400BAF1000F0E9F35DB5146384603F0F0FC85
:108C840007EB000A002F3FF456AF00269DF8423050
:108C940013F01002059200F0928002305B06119AE4
:108CA40048BF129B104448BFC018B8F1000F04928B
:108CB40040F39F809DF84020A8EB0008C2F3800396
:108CC4005007069300F19580510640F188803EB12B
:108CD40059463046C84700287EDB069B01351E46B0
:108CE40030227DE0384603F0B4FCC9E70E9B002631
:108CF40001208DF8203008AF0DF1210AC6E71907CD
:108D04005ABFC3F300135E012B26DDE90E23002BAB
:108D1400BFF663AF524263EB43032D26CDE90E2326
:108D24005BE7002659E700269DF840200DF1360345
:108D3400DB1B6FF386129A458DF840207FF65BAFFC
:108D4400AAEB0303119356E70E9890B30DF1360383
:108D54000093002108AB10AA03F0B4FBBDF8423025
:108D6400BAF1000F03F0EF0343F4F04343F01003B0
:108D74000746ADF84230D6DA00283FF4DCAE0026D0
:108D84000DF13603181A9A4680E70E9B07293FF621
:108D9400D2AEDFE801F00C04060C08080C0C1D70C0
:108DA400C9E61D80C7E6EA17C3E90052C3E61D60A1
:108DB400C1E62F4F064607F1050A052066E71A07A4
:108DC40048BF01306AE71046079306925946C847E0
:108DD400DDE90623002804DA15B0BDE8F08F20226F
:108DE40043461946002903F1FF33ECDC4544984619
:108DF4006D1A2EB159463046C8470028ECDB0135C0
:108E04009DF84230DA0601D41B0705D559463020B7
:108E1400C8470028E0DB0135059B33B159469DF86E
:108E24004300C8470028D7DB0135049E2E4405E0E3
:108E340059463020C8470028CEDB0135731B002B70
:108E4400F6DC53463A465946484603F081FB00286F
:108E5400C2DB0544A844A8EB0503002B7FF76BAEE7
:108E640059462020C8470028B6DB0135F3E700BF88
:108E740017D20000052370B5144D154E2C7801341B
:108E8400B4FBF3F303EB8303E41A03F091FD114AFB
:108E9400137823B156F82430C01A072813D90E4B7F
:108EA400D3F8141141B10021C3F81411D3F81431CB
:108EB4002C700CB9012313702C7803F079FD46F85B
:108EC4002400012070BD0020FCE700BF7D8300204A
:108ED400188200207C8300200050004048B1054BDC
:108EE400054A1B68B3FBF2F35843044B43F00103F8
:108EF400184770472880002040420F0020D000000F
:108F040003F062BD2DE9F84305464FF02003EFF36B
:108F1400118683F31288BFF36F8F4FF00C090D4B4A
:108F24000D4F1C68DFF834802CB986F31188BFF329
:108F34006F8FBDE8F883D4E90123002D18BF1346D1
:108F44002BB198F8102009FB02F2B85C984724680A
:108F5400EAE700BF448200203882002048830020D2
:108F6400012270B5164B1C7C04F01F039A40D043B9
:108F7400144B610903EB8103D3E8EF1F01EA0005F9
:108F8400C3E8E65F002EF7D10A4213D00E4B0F4D13
:108F94008BB10C236343EA185178E85C03F016FBA9
:108FA4000020FFF7AFFF0C235C4300232A192B5149
:108FB400C2E9013370BD83F31188BFF36F8FEFE70C
:108FC400488300204C820020D1C500003882002054
:108FD4002DE9F041324B07461D7C4FF02003EFF39F
:108FE400118883F31288BFF36F8F0C246C432D4BCD
:108FF4002D4E195D1A19002947D007CA06EB040C37
:109004008CE8070000221A5588F31188BFF36F8F8C
:109014000C236B43F05CF218A8B37B1C10D04FF404
:1090240000400021D2F808C0204C0023ECFB004192
:109034001F4A2046FFF78CF80121381A01F036FC4C
:1090440002F0B4FE0120FFF75DFF1A4B6A0903EB3F
:109054008203012205F01F018A40D3E8EF0F104379
:10906400C3E8E10F0029F8D1134B3BB10C2303FBF8
:1090740005F033185978305C03F09CFAFFF770FF61
:1090840002F0A8FE0120BDE8F0810146284600F068
:1090940015F80028B8D007C8344484E80700B3E7BB
:1090A400488300202C820020388200203F420F0099
:1090B40040420F004C820020B9C500002DE9F04F5A
:1090C40085B00E4603A900F043F84FF40047044668
:1090D4004FF0000B1B4B039DD3F800A0431E1BB2A3
:1090E40003EB4303DFF8608005EB830524B9A14655
:1090F400484605B0BDE8F08FC44659466868002369
:10910400E0FB07C1114A6046FFF722F8C4465946FE
:109114000190A8680023E0FB07C10C4A6046FFF7F2
:1091240017F8BAF1FF3FA94601D0824505D9731C4F
:10913400DED0019B1844B042DAD9013CA4B20C3D04
:10914400D4E700BF048000203F420F0040420F00DC
:1091540008B9024B0B600020704700BF28D0000004
:10916400014910220A60704710ED00E072B64040D9
:1091740080F31188BFF36F8F01B5FFF77BFE0028E2
:1091840002D0BFF34F8F30BFBDE8014062B6BFF3DA
:109194006F8F704772B6494081F3118801B5FFF7AC
:1091A40069FE002802D0BFF34F8F20BFBDE8014005
:1091B40080F3118862B6704740B2002807DB0123B0
:1091C4004109034A00F01F00834042F821307047F0
:1091D40000E100E0054B420953F82220012300F08E
:1091E4001F0003FA00F01040704700BF00E100E0E8
:1091F40040B2002801F10101ACBF00F16040064B10
:109204004FEA4111C9B2ABBF00F5614000F00F0055
:1092140080F800131954704714ED00E030BFFFF7D5
:10922400FDBF00BF0B4A08B50B4B22F07F029A60CA
:10923400BFF34F8FBFF36F8FD3F8882022F47002EF
:10924400C3F8882002F056F902F0EAFE00F008FAAA
:1092540002F090F90080000000ED00E0094A0A499C
:10926400936809685867996708494B6843F08053C5
:109274004B60002383F31188BFF36F8F9368986F5B
:10928400704700BF4883002038D1000000ED00E0A3
:1092940015498A6882F87DE04FF030001044EFF3FE
:1092A400098C80E8F01F202080F31288BFF36F8FB1
:1092B4000E4F4FF000668A698A603E6092F97DE045
:1092C400506F0023536780F3118802F1300090E857
:1092D400F01F8CF3098802F1000004B503F08DF946
:1092E400BDE80440704700004883002004ED00E01E
:1092F4001EF0040F0CBFEFF30880EFF309808169BF
:1093040011F8021C0229FFD001B503F067F901BD71
:1093140042F8203C009B0C4942F81C3C019B21F084
:10932400010142F8183C029B42F8081C42F8143C24
:109334004FF0807342F8043C002343674FF43C43EE
:10934400203A0265C367704703C30000084B986066
:10935400436E83F30B88104681F30988002163B6BA
:1093640081F31188BFF36F8F0022002302F0C7FF3F
:109374004883002001B572B60B4A506900281EBF0D
:109384000021516103F0AFFB62B6EFF30580A0F159
:1093940010004FEAC0000549014409C99847BDE8D7
:1093A40001400349084700004883002074CD0000B1
:1093B400B9930000044B99689869884203D0034923
:1093C4004FF080520A6070474883002004ED00E0AB
:1093D400154B9A6A12F0007F9A6A14BF1E201D2052
:1093E40012F0807F9A6A18BF1F2012F4801F9A6AB5
:1093F40018BF022012F4002F9A6A18BF212012F419
:10940400802F9A6A18BF222012F4003F9A6A18BF6C
:10941400232012F4803F9A6A18BF24206FEA024284
:109424006FEA12429A62704700ED00E010B5194BE2
:109434000246986A9C6A10F4805F14BF17201620B5
:1094440014F4006F9C6A18BF1820A40509D5986B02
:10945400986A000404D51AB19A6A22F400429A6206
:1094640019200C4B9A6A12F4806F9A6A18BF1A205A
:10947400D2050CD49B6A13F4005F18BF1C20054A64
:10948400936A43F47F43936200230B7010BD1B2047
:10949400F5E700BF00ED00E010B51C4B0246986AEA
:1094A4009C6A10F0100F14BF1120102014F0080F44
:1094B4009C6A18BF1220A40709D5586B986A000645
:1094C40004D51AB19A6A22F080029A6213200F4BD3
:1094D4009A6A12F0010F9A6A18BF142012F0200F32
:1094E4009A6A18BF1520D40658BF9B6A074B9A6A1C
:1094F400920642BF5A6A22F400525A629A6A42F0B1
:10950400FF029A6200230B7010BD00BF00ED00E063
:1095140070B5474B05465B6800268AB0C3F3080361
:1095240086F31188BFF36F8F02F07F40B0F17F4F55
:1095340016D1D00714D4540603D4100704D401263A
:1095440004E012F0040200D00D4600260022033B82
:109554008DF80720032B05D8DFE803F01E5C605963
:109564003546F3E700249DF807309BB920222946AD
:1095740002A803F07EF8099B002E53D0C3F308021F
:1095840022B96FEA53236FEA43230993204602A9C1
:1095940003F022F80AB070BD254BDA6A9107E1D4D2
:1095A400DA6A002ADEDBDA6A5200DBD55A69A96975
:1095B40042F480725A61BFF34F8FBFF36F8F5A69C1
:1095C40031F8021C22F480725A61BFF34F8FBFF34B
:1095D4006F8F4DF60272914201D12C68C3E79A6AEB
:1095E400D2B232B101200DF10701FFF755FF044655
:1095F400B9E79A6A12F47F4F05D001200DF10701F3
:10960400FFF714FFF3E79B6AB3F5803FAAD3FFF794
:10961400DFFEECE700200DF10701E6E700200DF185
:109624000701EDE723F4FF7323F00103ADE700BF67
:1096340000ED00E0044B5A6942F010025A615A6985
:1096440042F480625A61704700ED00E0EFF3088055
:10965400EFF3098101B57246FFF75AFF01BD00BF60
:10966400002320210348C2180133452B82F800133C
:10967400F9D1704700E100E0002080F31488BFF3C3
:109684006F8F002080F30A8880F30B88FFF738FC83
:1096940000200E490860BFF34F8F0D4880F30888FF
:1096A40000F03EF8202080F311880A484FF400614E
:1096B400401880F30988EFF314800221084380F3F3
:1096C4001488BFF36F8FFFF7ADFD000094ED00E049
:1096D400C890002088830020BFF34F8F0549064BB4
:1096E400CA6802F4E0621343CB60BFF34F8F00BF3C
:1096F400FDE700BF00ED00E00400FA050023184672
:109704000649D1F89020C2F30722934200DB704748
:10971400C1F89830C1F8A0000133F6E700ED00E08D
:1097240010B572B6002484F31388FFF7E7FF2346CD
:109734004FF0FF300C4A03F120010133102B42F8A3
:109744002100F8D100234FF0FF30074A03F16001F4
:109754000133102B42F82100F8D162B6BFF34F8FCA
:10976400BFF36F8F10BD00BF00E100E0084B9B68A2
:1097740083420BD1EFF3058343B1064B5A6842F0A1
:1097840080525A605A6A22F400425A6202F0E8BBDC
:109794004883002000ED00E01FB5094C094A234628
:1097A4000121094800F0EAF800230393074B012143
:1097B400E41A01A80193029400F0EAF804B010BD81
:1097C400000008200080002028D00000D88000205D
:1097D40010B50C7A0B6804F01F0223F01F031A4320
:1097E400CB68640923F01F03054943EA440343F0AB
:1097F4000103C1F89800C1F89C20C1F8A03010BD45
:1098040000ED00E02DE9F04F0F46144606464FF0F8
:1098140000084E4D85B0B84580F29480D6F8049087
:10982400B9F1000F36D0B9F11F0F40F2898019F059
:109834001F0F40F08580D6F800A01AF01F0F7FD1CB
:10984400504602F0E0FE834609EB0A00013802F0BC
:10985400DAFE834574D11BF1160F71D05C456FDDC0
:10986400C5F898B0D5F89C10C5F898B0D5F8A030D4
:1098740021F01F0143F01F0AD6E900321A4499422D
:1098840002F1FF391ED1CA4508D131465FFA8BF087
:1098940002F0C2FE08F101080C36BCE73146C5F8F7
:1098A40098B0D5F89C3022F01F0203F01F03134335
:1098B400C5F89C30E0B202F0AFFE10F1160F3FD0B5
:1098C400441CE7E7C5F898B0D5F8A020013B23F085
:1098D4001F0302F01F021343CA453146E0B2C5F824
:1098E400A030E8D002F098FE10F1160F28D0C5F889
:1098F40098B0D5F89C209DF808300AF1FF3A62F33D
:1099040004038DF80830D5F8A0309DF808205B08D2
:1099140063F347128DF80820D6E90032134400930C
:1099240023F01F03411C5344A3EB0903C8B223F0E3
:109934001F030728039303D86946FFF749FFBFE7CE
:109944006FF01504204605B0BDE8F08F00ED00E08F
:109954000522044BC3F89420BFF34F8FBFF36F8FDE
:10996400704700BF00ED00E0BFF35F8F0022024BA1
:10997400C3F89420704700BF00ED00E010B5034C1D
:109984002278FFF73FFF207010BD00BF7E830020C8
:109994002DE9F74F294D8A4606464FF00008AB469D
:1099A400274FD0451BDAD6F80490B9F1000F3FD009
:1099B40031680846019102F026FE0199044609EB3C
:1099C4000100013802F01FFE84424FF014021D4BC7
:1099D40008D002FB08F36FF015024BF8032003B024
:1099E400BDE8F08F14F1160F2C60F8D01978A1425D
:1099F400F5DD02FB08B0C7F89840C7F89840D7F8DF
:109A04009C4000F10801007B64F304000871D7F85E
:109A1400A0000C79400860F347140C71D7F89C102F
:109A240021F01F016960D7F8A01021F01F012961FE
:109A340008F1010814350C36B3E700BF508200204A
:109A440000ED00E07E83002038B50E4D2C68082C14
:109A540015D80020FFF788FF0B4B0C4AC3F8C02031
:109A6400844205D10A4B00201C70FFF771FF38BDFA
:109A7400696801EB0011FFF7ABFE0130F0E74FF02E
:109A8400FF30F4E734D0000000ED00E0AAFF44000A
:109A94007E830020014B1860704700BF08800020BF
:109AA400084B70B5C31A0D4607499B100446594329
:109AB4004022064802F010FE2B4601462046BDE82F
:109AC4007040184778820020B76DDBB6FCCC0000EC
:109AD400402373B50B4C0093041B0B460D460A49F7
:109AE400A41061430646094A094802F022FE011EF9
:109AF40005DA30462B4602B0BDE87040184702B084
:109B040070BD00BF78820020B76DDBB6A3C700002C
:109B1400FCCC00002DE9F843002201210646052073
:109B2400FFF766FB114801F061F8114B984219D117
:109B340001F06CF800244FF01C090C27DFF8348086
:109B44003569414609FB045002F033FC002807DB69
:109B5400012307FB04551C44042CAB67F0D10020FF
:109B6400BDE8F8836FF00400FAE700BFB19B000082
:109B74000000AD0B5CD0000001460C2300224B43D7
:109B840070B50848C41878331844D4E91C562267C1
:109B940002F08FFD2DB132462B46BDE870400248DD
:109BA400184770BD78820020FCCC0000052811D82D
:109BB400DFE800F0030E10100C0A074B986F10F04A
:109BC400070007D1FFF7D8BF0220FBE70320F9E71E
:109BD4000120F7E7704700BF7882002008B54FF0F6
:109BE4002003EFF3118183F31288BFF36F8F114ABF
:109BF400136843F002001060DA0708D481F3118877
:109C0400BFF36F8FBDE80840012001F013B80A4B81
:109C1400D3F80C24D3F80C34D307EFD5074802F05B
:109C240048FD81F31188BFF36F8FBDE80840002021
:109C3400FFF7A2BF1883002000500040F0820020EC
:109C44001FB500220123CDE902236B46084ACDF853
:109C540000D0CDF804D002F09BFD002805DB4FF4C2
:109C640080420023684601F071FE05B05DF804FBF4
:109C7400D9C7000010B54FF02003EFF3118483F32C
:109C84001288BFF36F8F074A136823F00201DB07C2
:109C9400116002D4012002F09BFE84F31188BFF30B
:109CA4006F8F10BD188300202DE9F0410122074673
:109CB4003549D1E8EF3FC1E8E02F0028F9D133B9A5
:109CC400324933484B60CB608A6002F085FB7B1ECF
:109CD400012B28D8012F06D12E4BD3F81C3403F0C6
:109CE4000303022B1FD002F0F8FE0546E8B92A4B05
:109CF4001B78D3B102220646264BC3F80823254C11
:109D0400DFF89880D4F81834D4F81824D20316D580
:109D140003F00303022B01D0012F10D175B386F396
:109D24001188BFF36F8FBDE8F0814FF02003EFF38C
:109D3400118683F31288BFF36F8F0125DFE7C5B166
:109D44003046FFF727FAD4F81835DBB2012BD9D106
:109D5400D4F80421002AD5D00022C4F80421D4F870
:109D640004210222C4F818252022C8F88021A36007
:109D7400C8E70021212002F0D3F8E4E70222054BD2
:109D8400C3F80423CFE700BF74820020648200205C
:109D940094820020005000408183002000E100E014
:109DA40008B5074802F06FFE38B10648FFF772FEA7
:109DB4000448FEF78BFB002008BD6FF01200FBE7A0
:109DC4005CCD0000CD9D00000A2838B50446074D3F
:109DD40004D1AB680D2128465B689847AB680348FB
:109DE4005B68E1B29847204638BD00BF5CCD0000F7
:109DF40030B5406801F01F04057BB2F5001F85B043
:109E040044EA451405D1204601F00EFA002005B0BD
:109E140030BD0025B2F5800FCDE9025514D1B3F160
:109E2400007F0CBF042305238DF80830002320464F
:109E3400194602AA01F036F81F4B984238D1012185
:109E4400204601F0ABF9E1E7B3F1C06F25D0B3F1DF
:109E5400007F14BF012302238DF808308368CB40B0
:109E6400D907E3D4B2F1A07FE0D1144A14486109C0
:109E7400012908BF024604F01F03803352F823303F
:109E8400DB07D3D40DF107052946204601F032F94A
:109E94000C4B984203D00395C8E70323DCE728461C
:109EA40001F076F9044B9842F5D06FF00B00AEE761
:109EB4006FF01500ABE700BF0000AD0B0025844038
:109EC400002884400400AD0B10B501F051F904469C
:109ED40068B901F025F9084B98420AD12146074890
:109EE40001F002F9224605212F20FFF781F9002015
:109EF40010BD6FF00400FBE70000AD0B059F0000F0
:109F04004209034670B502D0012A17D070BD0D4E28
:109F1400326951680029F9D0012503F01F030C6848
:109F24009D400029F2D08A682A4002D030464B680E
:109F340098472CB1236821461C46F2E7024EE7E716
:109F44002346F8E72CCD000014CD00002DE9FF4195
:109F5400476801F01F053B7B144645EA43150E464E
:109F640028460DF1030101F0C5F814F4403F804682
:109F74000BD1284601F080F93C4B984503D19DF85C
:109F8400030001F0FFF800200CE0002328461946E6
:109F940002AACDE9023300F085FF344B984204D085
:109FA4006FF0150004B0BDE8F081804503D19DF841
:109FB400030001F0E7F8A30349D540F20633234038
:109FC400B3F5837F19D00CD8062B17D004D8ABB1C6
:109FD400022BE5D1042311E0B3F5807FE0D1012306
:109FE4000CE040F20222934226D0B3F5407F25D004
:109FF400B3F5007FD4D1022300E007238DF80430A9
:10A0040084F48033C3F30043E0068DF805304CBF7D
:10A014000323C4F3401321038DF8063010D5012324
:10A024007A68B34093600022284601A900F0E8FF53
:10A034000E4B9842A7D0B3E70523DFE70323DDE700
:10A04400620341BF01237A68B340D360EBE7E306C0
:10A054004FF000034CBF0324C4F340141A462846AF
:10A0640001A98DF8044000F01DFFE1E70000AD0BED
:10A074004FF0010C2DE9F0475B4E5C4F00EB810182
:10A08400814202D10020BDE8F087046804F07F0318
:10A09400C4F343257F2B4FEA144408BF4FF0FF332A
:10A0A400222C00F29D80DFE804F0122328422B3E8C
:10A0B400429B9B9B9B45729B9B9B9B9B9B9B9B9BC4
:10A0C400757D80839B9B9B868C8F92959800C2F8AC
:10A0D4000C354FEA5318B8F1010F14BFB646BE460B
:10A0E40003F01F040CFA04F4CEF80840012402E043
:10A0F400C2F814350024A64623E0C2F80835E8E780
:10A104000024C2F808354FEA5319B9F1010F14BFFE
:10A11400B046B84603F01F0E0CFA0EFEC8F80CE069
:10A124004FF0010E0DE0C2F80C350124EBE7C2F844
:10A134001035DFE7C2F80835002DDBD100240625F1
:10A14400A64650F804AB03F01F090AF40058B8F10E
:10A15400000F4FEA53131CBF01244FF0000E012BD4
:10A164000CBFB846B04608EB8908D8F80032CAF3E9
:10A17400C11A03F0E0492B0243EA8A0343EA0E03BF
:10A1840043EA440343EA0903C8F8003278E7C2F813
:10A194000C35D1E7C2F860350468C4F38034002C70
:10A1A400C3D096E7C2F86435F6E7C2F86835F3E73A
:10A1B400C2F86C35F0E7C2F8243501244FF0000EE4
:10A1C400BFE7C2F8283584E7C2F83035F5E7C2F8AE
:10A1D4003435F2E7C2F83835EFE7C2F83C35ECE73E
:10A1E4006FF085004FE700BF0025844000288440BD
:10A1F400F0B54B79012B29D0032B24D110278B796F
:10A20400032B20D1CE790EB1012E1CD10A79012A5B
:10A214001ED0022A20D0B2B914460B684568B3F5A3
:10A22400164FD5F800C06ED033D8B3F5165F6DD095
:10A234001CD8B3F5966F6BD010D8B3F5967F6AD05F
:10A24400B3F5167F6AD06FF085005BE00027D6E790
:10A254004FF480740E22E0E70024FBE7B3F5166F99
:10A264005FD0B3F5965FEED1384B3CE0B3F5E14FE8
:10A274005AD007D8B3F5615F58D0B3F5964FE2D101
:10A28400334B30E047F61225AB42DCD14FF40003E8
:10A2940029E0B3F5613F4BD013D8B3F5963F4AD0CC
:10A2A40009D84DF6C025AB4247D0B3F5614FCAD1AA
:10A2B4004FF46B0317E0B3F5E13FC4D14FF0EB73F8
:10A2C40011E0B3F5612F3BD008D8224DAB423AD010
:10A2D400B3F5E12FB7D14FF0E86304E01E4DAB4274
:10A2E400B1D14FF080530569CCF8243543683A4323
:10A2F4001B6834432243C3F86C252B1D03C983E830
:10A3040003000020F0BD4FF41D03ECE7134BEAE714
:10A314004FF49E23E7E74FF4A033E4E74FF41C33F4
:10A32400E1E74FF41D23DEE70D4BDCE70D4BDAE7E5
:10A334004FF06C73D7E70C4BD5E74FF46503D2E7C6
:10A344004FF07063CFE74FF08063CCE700B01300A9
:10A3540000A04E0090D0030040420F0000502700A0
:10A3640000C0750000F03A0000903A012DE9F7436F
:10A374008046002201210820FEF73AFF0820FEF75C
:10A384001BFF0021D8F80470D8F810603C6801AABB
:10A39400C4F80015C6F80080D7F80C90484602F0BF
:10A3A4007BFA051E4DDB019BD9F80020197918684A
:10A3B400FFF75EFE051E44DB4046311DFFF718FF24
:10A3C400054600283DD17B68990713D506F118008E
:10A3D40000F0E2FC1E4B984237D1337E43F0004339
:10A3E400C4F8A031C4F88C300123327E9340194A5A
:10A3F400C2F804350823C4F800353B7A53B9C4F8CD
:10A404001031D4F810317369C4F834350123C4F819
:10A41400383523607B689A075CBF4FF48073C4F8B7
:10A4240004337B68DB0644BF4FF48003C4F8043371
:10A434003369C4F844350023C4F848350123A360C4
:10A44400E360284603B0BDE8F0836FF00405F8E745
:10A454000000AD0B00700140F8B504460D460769D5
:10A4640002F03BFBB0B92E4B1B789BB164266068AD
:10A4740002F048FA00BB012002F0A8FA013EF6D12E
:10A484000021212001F04CFDF0E786F31188BFF391
:10A494006F8FF5E74FF02003EFF3118683F31288F3
:10A4A400BFF36F8F6068314602F02CFA90B986F3DF
:10A4B4001188BFF36F8FEDE74FF02003EFF31186A0
:10A4C40083F31288BFF36F8F6068314602F01AFA83
:10A4D4000028DAD03B691D70626838691368C3F8D4
:10A4E40044050120C3F848050020C3F82001D3F82F
:10A4F4002051C3F858015268D3F85801D20608D540
:10A50400082062681268C2F800054FF48002C3F89C
:10A51400042301229A6081F31188BFF36F8FF8BD81
:10A52400818300200123834070B5DC430B4AD2E8C9
:10A53400EF1F01EA0405C2E8E65F002EF7D14FF4ED
:10A54400803282400648C0F80823BFF35F8FBFF310
:10A554006F8F0B4214BF0120002070BD3883002090
:10A564000050014070B40E4922F07F46D1E9003416
:10A57400D01AC31844F10004C1E90034A6F500134D
:10A58400B3F5400F09D2074B1B681A0A1B069C1926
:10A59400054B42F10005C3E9004570BC01F016BE4D
:10A5A400E88000203C830020F0800020D9B1012302
:10A5B4000D4A8340D2E8EFCF4CEA030CC2E8E1CF66
:10A5C4000029F7D14FF48033084A8340C2F804339A
:10A5D400074BD3E8AF3FC340DB0742BF4FF4001241
:10A5E400044BC3F800217047388300200050014019
:10A5F4003483002000E100E00D4B1868010A0006D6
:10A60400BFF35F8F0B4BD3F80435181841F10001E9
:10A61400B3F5801F0AD2084BD3E90023904271EBB3
:10A62400030303D210F1807041F10001704700BFB1
:10A634003C83002000500140F08000202DE9F74FBA
:10A6440016461F460446FFF76DFF0090FFF7D4FF40
:10A65400B04271EB070350D2384B301A67EB01015B
:10A66400984271F1000165D2354B03EB0413D3E931
:10A6740002239F4208BF964249D04FF480393149A2
:10A6840009FA04F9204626F07F4BC1F8489302F0FA
:10A6940083F94FF0030A584604F15005AD00ADB2FA
:10A6A40005F1804504F5A873274A05F5A8350193FB
:10A6B400DDF804C020F07F4341F82C30C1F8449306
:10A6C400D1F80485A0EB0800033820F07F409042C5
:10A6D4001DD9286860B1D1F80485A8EB0B0020F0DF
:10A6E4007F40B0F5000F12D9204602F055F9164A02
:10A6F4000AEB08000AF1010ADAE70123134AA3402E
:10A70400D2E8EF0F1843C2E8E10F0029F8D1002581
:10A714000B490C98230101EB0412C850C2E90267EB
:10A724000D9B536020460099FFF740FF284603B075
:10A73400BDE8F08F6FF01505F4E700BF010080005D
:10A74400D880002000500140FDFF7F0034830020AA
:10A7540073B500254FF0FF304FF0FF31184C194B03
:10A764000226C4F80833C4F84833174BC4F8085514
:10A77400C3E902014FF480334FF40012C4F80433E8
:10A78400124B0121C4F804631520C3F880212A4622
:10A79400FEF72EFD1520FEF70FFD01230C4AA360E2
:10A7A400236013600B4B0C4A009328460023019549
:10A7B400FFF744FF3046FFF777FA284602B070BD32
:10A7C4000050014003000F00D880002000E100E0A9
:10A7D4003883002069A50000FFFF7F002DE9F743BF
:10A7E4002E4BD3F8042390070BD5D3F8042142B1A0
:10A7F4000022C3F804212A4AD3F804311368013330
:10A804001360264AD2F80433D90327D5254BD3E85D
:10A81400EF1F21F00100C3E8E40F002CF7D1CB07B0
:10A8240002D4D2F84031CBB100251C4CC4F84051BD
:10A83400D4F84031FFF7E0FE4FF02003EFF311822C
:10A8440083F31288BFF36F8F174BD3E90267B042CB
:10A85400B94106D282F31188BFF36F8F03B0BDE80C
:10A86400F0834FF0FF38D3E900104FF0FF391D603B
:10A87400C3E902894FF48033C4F84833C4F8405123
:10A88400D4F8403182F31188BFF36F8F0029E5D0EB
:10A89400009032463B4628468847DFE70050014097
:10A8A4003C83002034830020D8800020431C13B54F
:10A8B40021D0012821DD124A124B9042D4BF044614
:10A8C4001C46FFF799FE104B0E49D3E90023801A6A
:10A8D400B0F5000F28BF002404448C4228BF0C4666
:10A8E40000200A49A2180190009143F10003FFF7E8
:10A8F400A5FE02B010BD034CE3E70124E1E700BF6D
:10A90400FEFF7F00FFFF7F00E880002069A50000B4
:10A9140008B5FFF771FE024B1B68C01A08BD00BFE3
:10A92400E88000202DE9F0411F46154B044693F8BA
:10A9340000800D461646A2B0B8F1000F15D1684646
:10A9440001F05FFE3A4631462846289BA04704465C
:10A95400684601F057FEB8F1000F02D0094800F034
:10A9640099FF204622B0BDE8F0814FF0FF324FF04E
:10A97400FF33044800F014FF0028E0D01F24F0E760
:10A9840081830020C080002070B5302692B006ABD1
:10A9940005460C4632460021184601F075FECDE905
:10A9A4000454CDE9020654B1012304AA0092002103
:10A9B4000448019302AA00F007F812B070BD2046C3
:10A9C400FBE700BF0001004030B401F50045B5F5D8
:10A9D400803F039C0DD243EA0405FF2D09D844EAC5
:10A9E4000324134644EA0142014630BC0348FFF7FE
:10A9F40099BF6FF0800030BC704700BF117C00002D
:10AA040070B501250268B2FA82F3C3F11F03DBB209
:10AA140005FA03F422EA0404D0E8EF6F964204D165
:10AA2400C0E8EC4FBCF1000FF6D1EBD101480B703C
:10AA340070BD00BF0000AD0B10B50368CB40DB0751
:10AA440010D401238B40026843EA0201D0E8EF4F9F
:10AA5400944204D1C0E8EC1FBCF1000FF6D1F2D14E
:10AA6400014810BD0148FCE70000AD0B0400AD0B2C
:10AA740073B5032800F2A080DFE800F00218253245
:10AA84000222594BC3F808230022C3F80421D3F847
:10AA940004210122DA60002401238DF80730032801
:10AAA40000F28A80DFE800F0296573940122002116
:10AAB4004D4B0DF10704C3F80823C3F80011D3F874
:10AAC40000115A60E8E74FF40072474BC3F80823BB
:10AAD4000022C3F82421D3F8242101225A62DAE7A0
:10AAE4004FF48072404BC3F808230022C3F820219E
:10AAF400D3F820210122DA61CDE742F210753A4EF3
:10AB04006CB3D6F8183403F003032370D6F8183462
:10AB1400D90351D59DF8070001284DD101F056FF06
:10AB2400013DEDD148E09DF80700012844D101F032
:10AB34004DFF013D4FD13FE09DF8070001283BD177
:10AB440001F044FF013D37D0BCB1D6F80C3403F01A
:10AB540001032370D6F80C34DB032DD5ECE7D6F8CB
:10AB64001834DA0328D5012001F030FF013DF6D175
:10AB740022E042F210751C4EE6E7D6F80C34D803F6
:10AB84001AD5012001F022FF013DF6D114E042F272
:10AB94001075154E94B1D6F85C3403F0010323709C
:10ABA400D6F85C34D90307D59DF80700012803D1F2
:10ABB40001F00CFF013DEDD102B070BDD6F85C345C
:10ABC400DA03F9D5012001F001FF013DF6D1F3E7E5
:10ABD40042F21075044ED6F85434DB03ECD5002C45
:10ABE400A1D10120A3E700BF00500040044B1A7913
:10ABF40022B9012218601A7102487047024870474E
:10AC0400408300200000AD0B0C00AD0B08B50520FF
:10AC1400FEF7E0FA10B90520FEF7CEFA0122044B44
:10AC2400C3F81825C3F81425C3F8802508BD00BF50
:10AC34000050004008B5032818D8DFE800F00230BF
:10AC44003B48294AD2F81834D2F81814C9030ED450
:10AC5400D2F81434DB0713D5D2F81C3403F0030301
:10AC6400013B012B09D80223C2F8043308BD03F0C9
:10AC74000303022B05D0012B02D00020FFF7F8FEBE
:10AC84000123194AC2F818350023C2F80431D2F856
:10AC940004310223C2F8043301239360E6E700225F
:10ACA400114BC3F80021D3F800210122C3F8042377
:10ACB4001A60DBE700220C4BC3F82421D3F82421CB
:10ACC4004FF40072C3F8042301221A62CEE7002273
:10ACD400054BC3F82021D3F820214FF48072C3F828
:10ACE400042301229A61C1E70050004010B5284BAB
:10ACF400D3F8002152B10020C3F80001D3F8002199
:10AD04000122C3F80823234B1B689847204BD3F830
:10AD140004218AB10022C3F80421D3F80421D3F812
:10AD24001824D3F8181402F00302012A4FF0020188
:10AD340026D1C3F818159A60154BD3F8202162B1B7
:10AD44000022C3F82021D3F820214FF48072C3F8E5
:10AD54000823104B04201B6898470D4BD3F824217B
:10AD6400AAB10022C3F82421D3F824214FF400729D
:10AD7400C3F80823074B0520BDE810401B6818479B
:10AD8400C3F80813034B01201B689847D4E710BD90
:10AD9400005000404083002001460148FFF730BEC8
:10ADA4002C800020036803F01F020260034A044859
:10ADB4005B09012B18BF1046704700BF0025844073
:10ADC40000288440034B083033F81000C0F34010CF
:10ADD400704700BF3080002070B50D4C00F10803AF
:10ADE40034F813300546DA050E4607D5C3F343237A
:10ADF40004EBC302526854F833309847A3682BB16C
:10AE040031462846E268BDE87040184770BD00BF6F
:10AE14003080002010B4124A083032F81030D905BE
:10AE24001BD5C3F3432123F4F85322F81030002038
:10AE340002F10E0434F8023F13F4807F03D0C3F30D
:10AE44004323994209D001303028F3D1002342F83A
:10AE54003130044810BCFFF7EFBD10BC704700BF91
:10AE640030800020A480002038B50246FFF7AAFFF6
:10AE74000B4C02F1080560B1002134F815305B0B6E
:10AE84009B0003F1804303F53C33C3F81015C3F86A
:10AE940010151046FFF7BEFF002324F8153038BD07
:10AEA400308000202DE9FF41044690461D4601B341
:10AEB4004F4E00F1080736F817309B0702D5FFF70D
:10AEC40081FF28BB00232046CDE900338DF80E30E6
:10AED4008DF80F300DF10F020B460DF10E0101F04C
:10AEE40079FD36F8173023F0020343F0010326F806
:10AEF4001730B8F1000F2DD03D4E04F1080736F895
:10AF0400171098F800008A07D8F8043002D5CBB19E
:10AF1400384821E021F02001C904C90C26F8171093
:10AF240083B10328F4D8D8F8043093F800C06246FB
:10AF3400920002F1804202F53C3280B9C2F8100559
:10AF4400C2F8100536F8173023F01C0343EA8003D7
:10AF540026F817301DBB284804B0BDE8F081D2F8AC
:10AF6400103541EA4C3123F00303C2F81035D2F80E
:10AF7400103541F0200123F44F3323F44073C2F819
:10AF840010352302D2F810E503F47C5343EA00435E
:10AF940043EA0E03C2F8103526F81710D2E720460C
:10AFA400D5E90067FFF736FF002ED4D0104DD5E960
:10AFB4000023964201D19F4218D010480DF10F0191
:10AFC400FFF71EFD0C4B9842C6D19DF80F2005EBF0
:10AFD400C20308345F6035F8143045F8326043EA40
:10AFE400422343F4807325F81430B4E70022EEE7DB
:10AFF400308000200400AD0B0000AD0BA4800020C5
:10B00400F0B50446154685B019B3344E00F108076F
:10B0140036F81720930703D4FFF7D4FE00285AD13B
:10B0240012F01C0F02D04B78012B54D001238DF861
:10B034000F3000234A1CCDE9001320468B1C0DF170
:10B044000F0101F0C7FC36F8173043F0030326F86C
:10B05400173015B9224805B0F0BD204E04F1080799
:10B0640036F81700830736D595F800C000236146EB
:10B0740020F02000890001F18041C00401F53C3139
:10B08400C00CC1F8103526F81700C1F810356A78DD
:10B09400002ADFD0D1F81035AD7823F4991323F4C6
:10B0A400F853C1F81035D1F810E5230203F47C53AA
:10B0B400120402F4403243EA0E0313432A0502F455
:10B0C400801240EA4C30134340F02000C1F81035A0
:10B0D40026F81700BEE70348BDE700BF3080002014
:10B0E4000000AD0B0400AD0B014BC3E90201704736
:10B0F4003080002008B50246FFF764FE38B1054BE6
:10B10400083233F8123004485B0B0B7008BD034857
:10B11400FCE700BF308000200000AD0B0400AD0B45
:10B1240038B50F4C94F87850BDB96022294604F123
:10B13400100001F0A9FA2F20FEF73EF8094B0A4847
:10B14400C3F87C51D3F87C214FF00042C3F80423A8
:10B15400012384F87830636738BD0448FCE700BFF6
:10B164003080002000F002400000AD0B0500AD0B64
:10B17400034B93F87800003818BF0120704700BFD4
:10B184003080002001460148FFF756BCA080002013
:10B1940001460148FFF734BCA080002037B50446BF
:10B1A400FFF710FE1D4B04F1080233F81230D0B142
:10B1B40013F0020517D11A485B0B9A00855080588A
:10B1C40002F1804202F53C32D2F8100540F0010051
:10B1D400C2F8100529B1012202FA03F3114AC2F898
:10B1E400043303B030BDC3F38203042B11D0052B09
:10B1F40011D001A80194FFF7D5FD019B0169D94045
:10B2040001F001010231204603B0BDE8304001F0F5
:10B214002ABC0321F7E70221F5E700BF30800020B4
:10B2240000F1024000F0024008B50246FFF7CAFDF3
:10B23400C0B10F4B02F1080133F81130990711D452
:10B2440001225B0B9A400B499B0003F18043C1F838
:10B25400082303F53C33D3F8102522F00302C3F886
:10B26400102508BD0021BDE80840104601F0FBBBD5
:10B274003080002000F0024013B5104B00F10802AA
:10B2840033F812300446DB0716D5FFF7CDFF20460E
:10B29400FFF7EAFD01A80194FFF784FD019B00EB91
:10B2A4008300D0F8003203F0E04343F00203C0F817
:10B2B4000032034802B010BD0248FBE73080002092
:10B2C4000000AD0B0400AD0B2DE9F04F0026012268
:10B2D4003446634B6348644987B01D6835B1D0F880
:10B2E400045315421EBF1C601D68164304338B4271
:10B2F4004FEA4202F1D1DFF86CA1DAF87C31002B7D
:10B3040000F09180DFF86481D8F820300493C8F805
:10B314002030574B1A6A05921A624FF000090DF15A
:10B32400100B4FEA4913009348E094FAA4F4B4FADA
:10B3340084F4009B4F4A1C4404F1080332F8137050
:10B344000123E00804F0070203FA02F21BF80030BC
:10B35400039423EA02030BF8003003A8FFF722FD4D
:10B36400039BB908803350F82330C7F382054A079A
:10B374002F46C3F301432BD520463946DDB2FFF7F0
:10B384002BFD03A80394FFF70DFD039B803350F8B6
:10B394002330C3F301439D4207D10021204601F02D
:10B3A40062FB2946204601F05EFB03A80394FFF7E5
:10B3B400F9FC0122039B02FA03F303625BF82940C0
:10B3C400002CB2D1B9F1000F1DD14FF00109A8E74B
:10B3D400022B0CD10321204601F045FB05F00503A7
:10B3E400012BE2D139462046FFF7F6FCDDE70221C6
:10B3F4002046019301F037FB032DF3D0019B032B6F
:10B40400D3D1022DEDE7CAF87C41DAF87C31D8F8C3
:10B41400203017490493C8F820300A6A1343059270
:10B424000A627FF47AAF012416B907B0BDE8F08F41
:10B4340096FAA6F3B3FA83F304FA03F29B0003F13A
:10B44400804303F53C33D3F81005D3F81015C0F34B
:10B454000520C1F3014126EA0206FFF7BDFCE3E73C
:10B4640000F1024000F0024020F102400025844037
:10B474000028844030800020104B70B553F82040E1
:10B48400013053F82060A64200D870BDD4E90035DD
:10B494008DB12846984738B10028B8BF4042FF28EC
:10B4A400A8BFFF20EB681870EA68537843F00103E3
:10B4B40053700834E7E79847FBE700BF3CD100002E
:10B4C400012208B5094B03201A70FFF7D5FF00F0DD
:10B4D40001FF0420FFF7D0FF00F0EAF8FCF7A0FF1B
:10B4E400034A137B23F00103137308BD81830020F7
:10B4F4007881002008B50348034A0021121A01F09C
:10B50400E8FA08BDD88000208483002000230122AB
:10B5140070B586B0CDE904230F220193CDE9023240
:10B5240014234FF4A0720E4D0E4E03FB00550E492A
:10B5340006EBC016044602FB00110C4B3046009586
:10B5440000F086F8737B2C7423F004037373084BA8
:10B55400013403EBC423EE606B6006B070BD00BF22
:10B5640048830020F8800020888B00206DB70000FD
:10B574008883002080B50020A6B0FFF77DFF2D4B07
:10B5840003F5006282F3088883F30A880024E02329
:10B59400294D2A4E85F82230EC772C766C76AC76E1
:10B5A40085F820406B6A264F43F4E0236B6285F8EC
:10B5B4002340FEF73FF8FDF7D3FD4FF0FF33AB62B6
:10B5C400EB62FEF741FAFEF7E7F840F20113ADF83B
:10B5D400243006ABB360CDE91F44229401F052FA43
:10B5E4000120FFF749FF0220164DFFF745FF00F049
:10B5F4000DFC154BB5610593012314494FF480628A
:10B60400CDE9034328463B46CDE90144009400F0CC
:10B614001FF806466A7B284622F004026A7301F08A
:10B62400ABFA2046FFF772FF3A4631462846FDF74B
:10B634008DFE00BF8883002000ED00E048830020D9
:10B64400C5B4000078810020B7D20000C88C002067
:10B654002DE9FF410E9E00F1580506730426C0E94A
:10B6640016550025044646730D9EC0E9065586739B
:10B67400D61D0C9A26F00706C0E919168560C57315
:10B68400C56602920B9A01EB060801920A9A00928F
:10B694004246FDF73DFE054B65659B6803B11B6F94
:10B6A4004046236704B0BDE8F08100BF4883002012
:10B6B4002DE9F043294C2A4D87B02646AE4204F1C9
:10B6C4002C040FD300F072FB4FF4004640F2E7372E
:10B6D400224CDFF89090AC4220D307B0BDE8F04391
:10B6E40000F078BB54F8043C059354F80C3C0493E4
:10B6F40054F8103C039354F8143C029354F8183C47
:10B70400019354F81C3C009354E9092354E90B01B8
:10B71400FFF79EFF54F82C3C5E65CEE7636A5A1C23
:10B724000DD00021384623EAE373C3FB060151EA36
:10B73400C333D4F8008004D1404600F0E7FA2C3437
:10B74400C9E74FF47A720023FCF702FD02460B4668
:10B7540008F11800494600F0C3FCF0E79CCF000054
:10B764009CCF0000E1CB000008B50B4C0B4D4FF013
:10B774002002EFF3118382F31288BFF36F8F01F07D
:10B7840079FA2B78606113B9FDF7F0FCEFE7FDF768
:10B794001FFC0028EBD1F7E74883002081830020B9
:10B7A4002DE9F341044617461E464FF02003EFF3FC
:10B7B400118883F31288BFF36F8FC368334A7BB158
:10B7C40080689168884219D057EA060318D188F333
:10B7D4001188BFF36F8F6FF00F0002B0BDE8F081E6
:10B7E400916891F90E100133E36093682161A360BD
:10B7F40088F31188BFF36F8F0020EEE72169F2E729
:10B8040091F90E1090F90E306FF07E029942A8BFA4
:10B8140019469142B8BF11468B422EDD01F06AF9F8
:10B82400054622464146CDE90076194800F0F8F96C
:10B834000028E1D04FF02003EFF3118683F3128840
:10B84400BFF36F8FA068D0B1236821699C420AD0EE
:10B854004BB193F90E309942A8BF19466FF07E039D
:10B864009942B8BF194601F045F940B1314608483C
:10B8740000F03AFA6FF00A00AFE70025D1E7002D97
:10B88400F4D186F31188BFF36F8FF3E74883002068
:10B894008283002038B5836804466BB3194A9268E2
:10B8A40093422CD1C368012B03D9013BC360002010
:10B8B40038BD4FF02003EFF3118583F31288BFF3F3
:10B8C4006F8F0169806801F015F9204601F08AF94B
:10B8D400A06058B190F90E2022610022826701F025
:10B8E4004BF92946084800F0FFF9E0E7E06085F3EA
:10B8F4001188BFF36F8FDAE76FF01500D8E74FF0C8
:10B90400FF30D5E7488300208283002038B5044601
:10B914004FF02003EFF3118583F31288BFF36F8F89
:10B9240001F060F948B10022826701F025F9294647
:10B93400BDE83840044800F0D7B9D4E902329A424D
:10B9440018BF0133A360F2E78283002013B54FF0E0
:10B954002004EFF3118184F31288BFF36F8F84689E
:10B9640044B1013C846081F31188BFF36F8F0020E0
:10B9740002B010BD52EA030406D181F31188BFF36B
:10B984006F8F6FF00F00F3E7CDE900230246024802
:10B9940000F046F9ECE700BF82830020C3897F2BC7
:10B9A40012D80A4B1B6863B1094B90F90E201B682F
:10B9B4009A4209DB437BDB0606D1064BC31A18BF48
:10B9C400012303F0010070470023FAE77483002089
:10B9D40070830020F88000200122044BC01A044B1D
:10B9E400C0105843034B1A54704700BFF88100201D
:10B9F400ABAAAAAA8283002070B50E4B0E4C1E7C03
:10BA0400054606EB460304EBC304204601F01CF98B
:10BA140000220A4B28469A55FFF7C0FF48B1084B4D
:10BA24002046BDE870401A680649013AD31700F071
:10BA340057BB70BD48830020F8810020828300201A
:10BA440074830020DDB9000038B50D4D2B4653F842
:10BA54001C4F9C4200D004B9EC68AB6838B95A7BDF
:10BA6400D20604D1A26912B9DA897F2A05D89C4288
:10BA740002D02046FFF7C0FF2346AB6138BD00BFAC
:10BA84004883002070B590F90D200146002A437BBD
:10BA940004DA03F07F03437301F034F8154A4B7B57
:10BAA400104663F07F034B7350F81C3F146A8342C3
:10BAB40008BF002323B9C1E90004216011620CE02E
:10BAC40091F90E5093F90E60B5420ED0AE420CDDE2
:10BAD4005868C1E90030016059609068BDE8704061
:10BAE400431A58425841FFF7AFBF9C42E3D01B684A
:10BAF400E0E700BF4883002070B490F90D30427B2A
:10BB0400002B29DBD30627D183692BBB134962F0B1
:10BB14007F0242730A4652F81C4F944218BF2346D0
:10BB24000C6A23B9C0E90024206008620CE090F993
:10BB34000E5093F90E60B5420AD0AE4208DD5A6841
:10BB4400C0E9003210605860002070BCFFF77CBF71
:10BB5400A342E7D01B68E4E770BC70474883002029
:10BB640008B590F90D200146002A437B04DA03F05E
:10BB74007F03437300F0C6FF044B9868431A58428E
:10BB84005841BDE80840FFF75FBF00BF488300206D
:10BB940070B515461C46064600F0C6FFB4F1FF3FDB
:10BBA40008BFB5F1FF3F08D02A46234606F1180026
:10BBB4000249BDE8704000F093BA70BDE1CB0000CB
:10BBC40038B54FF02003EFF3118583F31288BFF3E8
:10BBD4006F8F104B104A9C681068A04206D1FFF783
:10BBE4000BFF85F31188BFF36F8F38BD00211B7CD9
:10BBF40011600A4AD35C002BF3D02046FFF7CEFE37
:10BC04000028EED0637BDB0602D12046FFF73AFF23
:10BC14002046E4E7488300206C83002082830020D0
:10BC240070B50C480C4D86680C462E601146DDE953
:10BC340004234FF02006EFF3118586F31288BFF337
:10BC44006F8F8068FFF7A4FF2046BDE87040FDF7C2
:10BC540005BB00BF488300206C830020F8B5044670
:10BC64004FF02003EFF3118683F31288BFF36F8F35
:10BC7400437B49B2DA0619D18569BDB903F07F0364
:10BC8400437300F03FFF437B164A63F07F03437323
:10BC94001346817353F81C0F984218BF0546106A67
:10BCA4005DB9C4E900300460146211E00020A1739E
:10BCB40086F31188BFF36F8FF8BD95F90E70B94202
:10BCC4000BD08F4209DD6B68C4E900531C606C60C3
:10BCD4000120FFF7B9FE0120EAE7A842E1D02D6870
:10BCE400DEE700BF4883002049B9EFF3058030B98F
:10BCF400054B9A699B689A4201D0FDF7AFBA81F36C
:10BD04001188BFF36F8F70474883002010B54FF040
:10BD14002002EFF3118482F31288BFF36F8F427B0A
:10BD2400510704D484F31188BFF36F8F10BD22F040
:10BD340004024273FFF7E0FE2146BDE810400148CB
:10BD4400FFF7D2BF8383002070B50446183000F09B
:10BD54007BFF4FF02003EFF3118683F31288BFF3C8
:10BD64006F8F94F90D20637B002A05DA03F07F03BB
:10BD74002046637300F0C6FE0B4D637BA86843F056
:10BD840010036373031B58425841FFF75DFE86F3AB
:10BD94001188BFF36F8FAB68A34203D1BDE8704035
:10BDA40000F048BF70BD00BF488300204FF020035F
:10BDB400EFF3118183F31288BFF36F8F044B9A68FA
:10BDC400D37B013BD37381F31188BFF36F8F70472B
:10BDD4004883002010B54FF02003EFF3118483F360
:10BDE4001288BFF36F8F084B00209A68D37B01330E
:10BDF400D373FFF729FE84F31188BFF36F8FBDE877
:10BE0400104000F017BF00BF48830020024B03F12D
:10BE14001C02C3E90722704748830020F8B54FF09D
:10BE24002003EFF3118583F31288BFF36F8F194951
:10BE34008868437B03F07F03437300F063FE084686
:10BE44008B685A7B62F07F025A7350F81C2F0C6A7D
:10BE5400824208BF002222B9C3E9000423600B62B6
:10BE64000CE093F90E6092F90E70BE420ED0B74208
:10BE74000CDD5168C3E900210B6053600120FFF71A
:10BE8400E3FD2846BDE8F840FDF7E8B9A242E3D057
:10BE94001268E0E74883002050EA01032DE9F041ED
:10BEA40005460E4603D1FFF7B9FF00202CE0831CA2
:10BEB40071F1FF332ADB00F0EDFE2C184FF0200364
:10BEC400EFF3118883F31288BFF36F8F114F124B76
:10BED400B8681860FFF744FEB86810492A4633462C
:10BEE400183000F0FDF8BA684046537B43F0100365
:10BEF4005373FDF7B3F900F0CDFE201A63EB03038F
:10BF0400012873F10003D0DBBDE8F0816FF0010478
:10BF1400241AD3E7488300206C830020E1CB00007F
:10BF2400B1F1FF3F08BFB0F1FF3F08B506D1084BA0
:10BF34009868FFF709FF4FF0FF3008BDFFF7ACFF2B
:10BF44004FF47A7380FB0303C00B40EA4340F4E7E9
:10BF540048830020014B9868704700BF4883002045
:10BF64002DE9F04104464FF02003EFF3118683F3EB
:10BF74001288BFF36F8F037BD9070BD586F3118823
:10BF8400BFF36F8F404080F311884FF0040002DF4D
:10BF9400BDE8F081437B1A0704D586F31188BFF30B
:10BFA4006F8FF5E723F0200242F00801D20920D177
:10BFB4004173A36813B1204600F0ACFD04F11800EE
:10BFC40000F042FE4FF0000804F15807A56DBD4291
:10BFD40000D0B5B90120FFF737FD104B9B68A34291
:10BFE400DBD1EFF30583002BD7D13046FDF736F9CB
:10BFF400D3E703F05F0343F00803437300F082FDCB
:10C00400D7E7284600F086FD05F1180000F01CFE75
:10C014002846C5F87880FFF76FFDD7E748830020EE
:10C0240008B50648064A0749121A00F054FDBDE84F
:10C034000840054A0549064800F04DBD008000202F
:10C04400D4800020F0D2000000000000F0D20000F4
:10C0540000800020034B1B680BB9FEF759BC00207D
:10C06400704700BF7883002010B50E4B1C689C42BB
:10C0740004D1FFF7EFFF6FF0004010BDFFF7EAFFB8
:10C08400002CF8D0D4E904321B1A62EBE072B3F14D
:10C09400004F72F10001EEDA002AACBF184600200E
:10C0A400EBE700BFAC80002030B570B10B4B5B6890
:10C0B40098420AD0036843B1D3E90421D0E9044586
:10C0C400121941EB0501C3E90421D0E900321360E0
:10C0D4005A600023C0E9003330BD00BFAC800020AB
:10C0E400B3F1FF3F08BFB2F1FF3FF8B504461D4668
:10C0F40016465CD081604FF02003EFF3118783F381
:10C104001288BFF36F8F013275F1FF3324DA6FF0B9
:10C1140001032C49D1E900209B1A4FF0FF3262EB56
:10C1240000009E1B60EB0500012E70F1000301DA94
:10C1340001260020C4E90460234ED6F800C07568C7
:10C14400B44508BF4FF0000CBCF1000F0DD1C4E999
:10C1540000652C6074601CE0FFF77CFF013645F13C
:10C164000005361845EBE070E4E7DCE90420D4E987
:10C174000431934271EB000E1ADAD21ADCF804305F
:10C1840060EB0100CCE90420C4E900C31C60CCF8D6
:10C1940004403368B34206D09C4204D1FFF764FFE5
:10C1A4000021FEF783FB87F31188BFF36F8FF8BD7F
:10C1B4009B1A61EB0001AC45C4E90431C7D0DCF83B
:10C1C40000C0C1E710820020AC8000202DE9F84FA8
:10C1D4004FF02003EFF3118C83F31288BFF36F8FBA
:10C1E400DFF8B0A0DFF8B0900024C9F80000DAF856
:10C1F40000000025504508BF0020284FE046D7E93D
:10C204000021D9F8003080B3D0E9046C4FEAE37E12
:10C21400B3427EEB0C0B05DAF61A6CEB0E04C0E9A4
:10C22400046422E0B21841EBE671C0E90445C7E9B1
:10C234000021FFF739FF88F31188BFF36F8F8368FC
:10C2440098474FF02003EFF3118883F31288BFF36C
:10C254006F8FD9F80030DAF800009B1B5045C446B4
:10C26400C9F80030CAD1D7E9002100249A1841EB5B
:10C27400E373C7E90023C9F80040FFF7F5FE214640
:10C28400FEF714FB88F31188BFF36F8FBDE8F84FF6
:10C29400FFF796BCAC800020788300201082002039
:10C2A40010B54FF02003EFF3118483F31288BFF32A
:10C2B4006F8FFFF7CFFE0346054AD2E90001181835
:10C2C40041EBE37184F31188BFF36F8F10BD00BF9E
:10C2D40010820020014800F005B800BFBFD2000062
:10C2E400002070470FB407B504A951F8040B01915D
:10C2F400FCF7F2F803B05DF804EB04B070470446B1
:10C3040008B5084611461A46A047FFF723FEFDF775
:10C314002DFA038B13F0070305D10368002B0CBF20
:10C32400002003207047022B05D1408BB0FA80F027
:10C33400400980007047012B05D10368002B0CBF16
:10C344000020052070470020704710B50C4600B14E
:10C3540011B96FF0150010BD081D00F095F8002804
:10C36400F9D1A368032BF6D9F3E72DE9F0410D4683
:10C3740007461946281D90461E4600F096F80446C6
:10C3840038B13346424629463846A446BDE8F04112
:10C394006047BDE8F08110B44FF02004EFF3118240
:10C3A40084F31288BFF36F8F416110BC0121FCF745
:10C3B400A1B838B50C46054658B151B10B6843B124
:10C3C4004B6833B11C22002100F05EF900202C617F
:10C3D40038BD6FF01500FBE770B505460E46FFF754
:10C3E400B4FF041E15DB4FF02003EFF3118283F337
:10C3F4001288BFF36F8F4FF6FF716B8B2C8B8B42C0
:10C4040004F0070407D182F31188BFF36F8F6FF034
:10C414000A04204670BD022C0CD101336B8382F3D5
:10C424001188BFF36F8F0023224631462846FFF759
:10C434009CFFEEE7062C14D8DFE804F00413131372
:10C44400041A0400002333606B683BB9C5E9006635
:10C45400ACB902212846FCF74DF8DAE71E606E609D
:10C46400F6E782F31188BFF36F8F6FF00404D0E70F
:10C4740082F31188BFF36F8F6FF08504C9E782F3ED
:10C484001188BFF36F8FC4E7034658B1426802F0C6
:10C494000302012A03D0032A04D1026812B1002046
:10C4A400986070476FF0150070474268034602F0C9
:10C4B4000302032A4FF00002816014BF1046006893
:10C4C4005A6070472DE9F84F9A46D37880466F2B0F
:10C4D4000F461546A3F1410B29D024D8582B0CBF85
:10C4E40010260A26DDF828903246002340463946B5
:10C4F400FBF72EFE092AD4B21ED83034B045E4B27C
:10C5040077F1000709F8014D01D3D14511D82B78F3
:10C514009B0605D5082E15D1AB7843F00803AB7004
:10C524004846BDE8F88F03F0F703702BD7E70826D9
:10C53400D8E780460F46D7E7BBF1190F94BF3734CD
:10C544005734DBE7102EEBD1AB7843F01003E6E76A
:10C554002DE9F0410746884615461E461446B44266
:10C5640005D30EB1601B08E02378002BFAD04146B6
:10C5740014F8010BB8470028F1DABDE8F0817047E0
:10C584004FF02003EFF3118183F31288BFF36F8F11
:10C594004FF040230222C3F8D0260122C3F8042717
:10C5A400C3F80429C3F8002B81F31188BFF36F8FFC
:10C5B40000207047062808D14FF040230122C3F819
:10C5C4000025BFF34F8F20BFFDE77047002383F39F
:10C5D4001188BFF36F8F704700F060BA014600689E
:10C5E40000F05CBA00210120FFF7F6BF08B5FCF7A4
:10C5F40015FEBDE80840FCF7DDBE436E83F30B88EF
:10C6040070477047704740E800F313F4803FD8B296
:10C6140008BF6FF0150070477FB50A894E890B6813
:10C624004D6802F01F0242EA461200938DF808207A
:10C6340023F01F036A1E134423F01F0307280393E8
:10C6440004D86946FDF7C4F804B070BD6FF0150056
:10C65400FAE7034600201A5C02B970470130FAE792
:10C66400034600201A5C0AB1884200D170470130A9
:10C67400F8E710B5431E0A44914200D110BD11F8E9
:10C68400014B03F8014FF7E70346C9B20244934252
:10C6940000D1704703F8011BF9E74FF0FF307047F2
:10C6A4000C220369C9B201FB0233986F00F0070042
:10C6B40070474FF02003EFF3118283F31288BFF326
:10C6C4006F8F036803F0C00343F00203036082F337
:10C6D4001188BFF36F8F704770B5C9B203694FF00B
:10C6E4002004EFF3118584F31288BFF36F8F0C26B7
:10C6F40006FB0134A46F14F0C00408D0A24206D093
:10C7040085F31188BFF36F8F4FF0FF3070BD0122A6
:10C7140006FB01339A6785F31188BFF36F8F436873
:10C7240003EBC1035B6898470020EFE78022FFF723
:10C73400D3BFF8B5069F0469C9B24FF02005EFF3E3
:10C74400118685F31288BFF36F8F0C2505FB014416
:10C75400A56F05F0070CBCF1010F0CD1A76786F398
:10C764001188BFF36F8FC4E91C23436853F8313039
:10C7740098470020F8BD05F0C005AF4286F3118844
:10C78400BFF36F8F0CBF6FF077004FF0FF30F1E70E
:10C7940013B580240094FFF7CCFF02B010BD10B491
:10C7A4001C240069CBB203FB0400002110BC104719
:10C7B4000320FEF73FBA0220FEF73CBA0020FEF742
:10C7C40039BA032000F004B9022000F001B90020B6
:10C7D40000F0FEB81046FFF799B8084608B51146B0
:10C7E400FEF7D2F8002818BF6FF0040008BD08B5A2
:10C7F40000F0E8F8002818BF6FF0040008BD436893
:10C8040000205B681B690B607047436802EA010003
:10C814005B6821EA020198600020D9607047436890
:10C8240000205B6899607047436800205B68D960AA
:10C83400704743685A68536821EA03000B409060CC
:10C844000020D360704710B503695868F8B1884276
:10C8540019D19C680868A142586000D198600020F2
:10C8640008602AB15A680A609A68596002B99960E6
:10C87400002010E0814206D1086820609868814257
:10C88400EDD19C60EBE7044600680028F2D1002A51
:10C89400E8D16FF0150010BD30B543681360057A18
:10C8A400446804EBC504A34202D36FF0010030BD19
:10C8B4005C798C4201D00833F0E70020F7E70B469F
:10C8C4000269D2E9010183E803000020704743684C
:10C8D4001B68D3F88004C3F8800470474368026976
:10C8E4001B68D3F8100150B10020526912780A7005
:10C8F400C3F81001D3F8102101221A6070474FF0D9
:10C90400FF30704702680346D2F8580140B95B68AB
:10C914009B0706D4D2F82001003818BF01207047C5
:10C924000120704742681368D3F80413C90518D569
:10C93400D3F82011A9B14FF02000EFF3118180F357
:10C944001288BFF36F8FD3F8200130B10020C3F8F1
:10C954002001D3F820010120D86081F31188BFF3AE
:10C964006F8F5268D20615D54FF02001EFF3118274
:10C9740081F31288BFF36F8FD3F8581111B10021DE
:10C98400C3F800154FF48001C3F8081382F311882B
:10C99400BFF36F8F70477047002200F150039B0074
:10C9A4009BB203F1804303F5A8331A601B687047F8
:10C9B40008B5FDF721FE08BD002008B5FCF78CFE84
:10C9C40000207047002070477047004700F066B9A8
:10C9D400FEF74EB8F7B51646DDE90847019001A801
:10C9E4001D46FEF7DFF9019BB6F1000C18BF4FF0AE
:10C9F400010C00EB83000B1E18BF0123002D43EA3A
:10CA04004C0314BF4FF00C0C4FF0000C002C43EA05
:10CA14000C0314BF4FF4706C4FF0000C002F43EA6A
:10CA24000C0314BF4FF4403C4FF0000CD0F800222C
:10CA340043EA0C0322EA030301B109780EB1367804
:10CA4400760019430DB12D78AD0031430CB1247833
:10CA5400240229430FB13F783F040C433C43C0F800
:10CA6400004203B0F0BD1FB50DF10F030193002385
:10CA74008DF80F101A4619460093FFF7ABFF05B067
:10CA84005DF804FB704740B1C368587810F00100AA
:10CA94001EBF1878B0FA80F040097047F8B5054613
:10CAA4000E464FF02003EFF3118783F31288BFF390
:10CAB4006F8FFFF74FFA314604462846FFF77CFF95
:10CAC40087F31188BFF36F8F2046BDE8F840FCF769
:10CAD4004DBEFFF7D9BDFFF7CCBDEFF3058000389D
:10CAE40018BF0120704708B5FCF73AFABDE80840C2
:10CAF400FFF751BF90F90E308B4201D0FFF7AEB86B
:10CB040000207047D0E9003213605A600023C0E966
:10CB14000033704708B5FFF7F5FF437B23F00203AA
:10CB240043730023836008BD38B504460D46FFF700
:10CB340017F8637B43F002036373E5B1A5602B68C8
:10CB44009D4209D16B68C4E900531C606C6012E01B
:10CB54006A689342F6D01B68002BF3D094F90E2038
:10CB640093F90E108A42F3D09142F1DD5A68C4E978
:10CB7400003214605C6038BD10B54FF02003EFF351
:10CB8400118483F31288BFF36F8FFEF7B5FF84F32C
:10CB94001188BFF36F8F10BD38B504464FF02003E2
:10CBA400EFF3118583F31288BFF36F8F437B13F088
:10CBB400280F0BD183680BB1FFF7ACFF637B51B92E
:10CBC40003F0FB0320466373FEF796FF85F3118899
:10CBD400BFF36F8F38BD03F0EB03F3E7012118387F
:10CBE400FFF7DABF38B54FF02003EFF3118583F375
:10CBF4001288BFF36F8F0468A0420DD034B1204671
:10CC0400FFF788FF04F1180000F01EF885F311887F
:10CC1400BFF36F8F204638BD0024F7E7034620B9E1
:10CC2400EFF305820AB9FCF719BB83F31188BFF34C
:10CC34006F8F70474FF02003EFF3118083F3128856
:10CC4400BFF36F8FFFF7EABF10B54FF02002EFF389
:10CC5400118482F31288BFF36F8F03683BB1FFF72F
:10CC640023FA002084F31188BFF36F8F10BD6FF097
:10CC74001500F7E710B54FF02003EFF3118483F3A9
:10CC84001288BFF36F8FFFF7EFF984F31188BFF3B6
:10CC94006F8F10BD08B5FFF703FB08BD08B1FCF7A3
:08CCA4001DB970477047000044
:08CCAC00DCB4FF7F0100000071
:10CCB40085C5000000000000199B0000FCCC0000AA
:10CCC400CD9E000014CD0000CD9E00002CCD0000B0
:10CCD400F3C7000044CD000071A300005CCD000048
:10CCE400A59D00000000000055A700000000000002
:08CCF400C5C9000000000000AA
:10CCFC0037D2000068D0000088D00000B48000203B
:10CD0C0078820020B4CF000058D20000ACD00000D4
:10CD1C00CCD00000B88000201C830020AECF0000D7
:10CD2C0064D20000BCD00000CCD00000BA8000203F
:10CD3C0028830020A8CF000050D200000000000083
:10CD4C00A4D00000B680002000000000A2CF00009C
:10CD5C0070D20000F0D0000024D10000BC80002074
:08CD6C000C8000209CCF0000A8
:10CD740000000000E9C5000000000000E9C5000053
:10CD840000000000E9C5000000000000E9C5000043
:10CD940000000000E9C50000F1AC0000CFC90000AC
:10CDA40000000000E9C5000000000000E9C5000023
:10CDB4005CCD000029C9000000000000E9C50000A6
:10CDC40000000000E9C5000000000000E9C5000003
:10CDD40000000000E9C5000000000000E9C50000F3
:10CDE40000000000E9C5000000000000E9C50000E3
:10CDF40000000000E9C5000000000000E9C50000D3
:10CE040000000000E9C5000000000000E9C50000C2
:10CE140000000000E9C5000000000000E1A70000D8
:10CE240000000000E9C5000000000000E9C50000A2
:10CE340000000000E9C5000000000000E9C5000092
:10CE440000000000E9C5000000000000E9C5000082
:10CE540000000000E9C5000000000000E9C5000072
:10CE640000000000E9C5000000000000E9C5000062
:10CE740000000000E9C5000000000000E9C5000052
:10CE840000000000E9C5000000000000E9C5000042
:10CE940000000000E9C5000000000000E9C5000032
:10CEA40000000000E9C5000000000000E9C5000022
:10CEB40000000000E9C5000000000000E9C5000012
:10CEC40000000000E9C5000000000000E9C5000002
:10CED40000000000E9C5000000000000E9C50000F2
:10CEE40000000000E9C50000CDB20000CFC9000079
:10CEF40000000000E9C5000000000000E9C50000D2
:10CF040000000000E9C5000000000000E9C50000C1
:10CF140000000000E9C5000000000000E9C50000B1
:10CF240000000000E9C5000000000000E9C50000A1
:10CF340000000000E9C5000000000000E9C5000091
:10CF440000000000E9C5000000000000E9C5000081
:10CF540000000000E9C5000000000000E9C5000071
:10CF640000000000E9C5000000000000E9C5000061
:10CF740000000000E9C5000000000000E9C5000051
:10CF840000000000E9C5000000000000E9C5000041
:08CF940000000000E9C50000E7
:10CF9C0000800080FF7F00800080FF7F0080008089
:0ECFAC00FF7F00800080FF7F00800080FF7FFD
:02CFBA00FFFF77
:10CFBC0096D2000000000000A1D20000000000008A
:10CFCC00ABD200000000000006D200000000000000
:10CFDC0042D20000000000008AD2000000000000D5
:10CFEC0024D2000000000000BCD2000000000000B1
:10CFFC0021D20000000000001DD200000000000043
:08D00C007AD2000000000000D0
:0CD01400FFFFFFFFFFFFFFFFFFFFFFFF1C
:10D020000338FDD870470000008000200000000099
:10D0300006000100020000003CD0000000000000DB
:10D0400028D2000006000000E0FF0F000080002052
:10D0500030D2000021000000E0FF0720D59A000038
:10D06000A59A000000000000E19B0000799C0000F0
:10D07000C1C70000D3C70000BBC70000CDC7000078
:10D08000B5C70000C7C70000459C000031C70000BD
:10D0900095C7000000000000A5C6000000000000C9
:10D0A00000000000DFC7000000000000FFFF0000DC
:10D0B000002884400000000001000000FFFFFFFF87
:10D0C000002584400000000000000000519F000087
:10D0D00003C800000FC8000023C800002DC80000CE
:10D0E00037C80000F59D00004BC80000000000009C
:10D0F00000800040020000000000000000D100009D
:10D10000008000400CD100000100000014D100009C
:10D11000040000001400000013000200960101004A
:10D1200095010300E1C800005DA40000D3C8000021
:10D13000F5A10000C3C80000F5FFFFFFB4CC00005C
:10D14000B4CC0000ECCC0000F4CC0000FCCC00001F
:10D15000FCCC000053746172742065726173657059
:10D16000726F746563742073616D706C652E0A0054
:10D17000456E746572696E6720666F72657665725A
:10D18000206C6F6F702E0A00446973636C61696D67
:10D1900065723A2054686973206578616D706C65BA
:10D1A00020646F6573206E6F74206C6F636B206EEC
:10D1B0006574636F72652C20616E642063616E20FC
:10D1C000626520756E6C6F636B6564206279207296
:10D1D00065636F766572696E67206E6574636F72E2
:10D1E00065210A2053656520524541444D4520661E
:10D1F0006F72206D6F726520696E666F726D6174FB
:10D20000696F6E2E0A0063627072696E74665F7079
:10D2100061636B61676500286E696C2900736F63D9
:10D2200000706D006D707500464C4153485F3000D2
:10D230005352414D5F3000636C6F636B403530304B
:10D240003000636C6F636B5F636F6E74726F6C0042
:10D250007073612D726E67006770696F4038343289
:10D26000383030006770696F403834323530300004
:10D2700075617274403830303000756172745F6E61
:10D280007266785F756172746500666174616C5F67
:10D290006572726F72004E5246585F434C4F434B5B
:10D2A000004E5246585F44505049004E5246585F17
:10D2B0004750494F5445006D61696E006F73002AF5
:10D2C0002A2A20426F6F74696E67205A65706879E8
:10D2D00072204F53206275696C642076332E332E92
:10D2E00039392D6E637331202A2A2A0A0000000082
:10D2F000E5C20000FFFFFFFF9FC600000000000026
:10D3000000C2010000010300000000008083002033
:10D310007F830020000000000090D003FFFFFFFF8C
:10D3200000000000000000000000000000000000FD
:10D3300000000000000000000000000000000000ED
:10D3400000000000000000000000000000000000DD
:10D3500000000000000000000000000000000000CD
:10D3600000000000000000000000000000000000BD
:10D3700000000000000000000000000000000000AD
:10D38000000000000000000000000000000000009D
:10D39000FF0000000000000000000000AC80002042
:04D3A000AC8000203D
:0AD3A400000000000000000000007F
:02D3AE00FFFF7F
:10D3B000C0800020C08000200000000000000000AD
:04D3C0000E0000005B
:04D3C40015E015E07B
:040000030000967DE6
:00000001FF
